:020000040800F2
:10000000500F0020590800080D0300080F030008D6
:1000100013030008170300081B030008000000007A
:100020000000000000000000000000001F030008A6
:100030002103000800000000230300082503000836
:1000400073080008730800087308000873080008A4
:100050007308000873080008730800087308000894
:100060007308000873080008730800087308000884
:100070007308000873080008730800087308000874
:100080007308000873080008730800087308000864
:10009000730800087308000873080008216000084E
:1000A0007308000873080008730800087308000844
:1000B0002163000873080008B7650008730800088A
:1000C0007308000873080008730800087308000824
:1000D0007308000849780008A9630008730800083D
:1000E00041600008730800087308000873080008DE
:1000F00073080008730800087308000873080008F4
:100100007308000873080008EB680008730800080B
:1001100073080008730800087308000873080008D3
:1001200073080008730800087308000873080008C3
:1001300000F002F800F0B4F80AA090E8000C824445
:100140008344AAF10107DA4501D100F0A9F8AFF222
:10015000090EBAE80F0013F0010F18BFFB1A43F0A5
:1001600001031847B8C40000D8C400000A444FF087
:10017000000C10F8013B13F0070408BF10F8014B06
:100180001D1108BF10F8015B641E05D010F8016B4B
:10019000641E01F8016BF9D113F0080F1EBF10F8AF
:1001A000014BAD1C0C1B09D16D1E58BF01F801CBD2
:1001B000FAD505E014F8016B01F8016B6D1EF9D555
:1001C0009142D6D37047000000230024002500266A
:1001D000103A28BF78C1FBD8520728BF30C148BFAA
:1001E0000B6070476E2907F03D87702907F0AD84DA
:1001F00066290AF0388565290AF0358567290AF0ED
:1002000032856129AFF3008003681B0A28BF41F0E3
:100210008001692907F02084642907F01D8475296D
:1002200007F01A846F2908F03F82782907F0798453
:10023000E92908F0DB81E42908F0D881F52908F0E4
:10024000D581EF2908F03C82F82907F0788403680B
:10025000DB0928BF41F08001632908F04A81732936
:1002600008F04F81E32908F00D83F32908F0128389
:10027000002070471FB59DE8030007F0A9FD08F0B6
:100280004FFA04000020002109F002FC401C6060CD
:100290000020002109F0E6FBE0601FBD10B510BD95
:1002A00008F0BAFB1146FFF7E5FF00F009F808F087
:1002B000E1FB03B4FFF7F2FF03BC07F0DFF9000036
:1002C000092002F07BFB02F007FB4FF4E1314820EC
:1002D00007F0F6F902F096FA00F016F905F028FF9B
:1002E00005F054FE05F0DEFD002140F2E73005F098
:1002F00039FF06F08BF900BF04F077FB0028FBD133
:1003000006F08BFC01E006F054FDFCE7704700BFEF
:10031000FEE700BFFEE700BFFEE700BFFEE7704755
:1003200070477047704700000CB5002001900090A6
:100330006C48006840F480306A49086000BF694832
:10034000006800F4003000900198401C0190009873
:1003500018B90198B0F5A06FF1D16248006800F4B7
:10036000003010B10120009001E0002000900098C2
:10037000012843D15C48006840F010005A490860E9
:100380000846006820F0030008600846006840F056
:100390000200086053484068524948600846406877
:1003A00048600846406840F48060486008464068FD
:1003B00020F47C1048600846406840F4E81048602B
:1003C0000846006840F08070086000BF454800683B
:1003D00000F000700028F9D04248406820F0030087
:1003E000404948600846406840F00200486000BF4D
:1003F0003C48406800F00C000828F9D10CBD10B54D
:10040000FFF792FF10BD10B53648006840F00100BC
:10041000344908600846406834490840314948601A
:1004200008460068324908402E49086008460068BE
:1004300020F4802008600846406820F4FE004860F0
:100440004FF41F008860FFF7DAFF4FF00060294982
:10045000086010BD10B5002100200022214B5B6810
:1004600003F00C0121B1042906D0082928D107E0A6
:10047000214B224C236027E01F4B204C236023E0BC
:10048000184B5B6803F47010164B5B6803F4803202
:10049000022303EB904022B9194B4343174C2360CE
:1004A0000DE0104B5B6803F4003323B1144B43435E
:1004B000124C236003E0104B4343104C236003E0D5
:1004C0000D4B0E4C236000BF00BF064B5B68C3F3AF
:1004D00003130C4CE15C094B1B68CB40074C2360B9
:1004E00010BD000000100240002002400000FFF894
:1004F000FFFFF6FE08ED00E000127A000000002089
:1005000000093D000400002010B5242007F0E3F9A5
:100510009F490860242007F0DEF99E4908602420E6
:1005200007F0D9F99C4908609C4899490968086115
:10053000002097490968486195490968886197488A
:100540009549096808610020934909684861924902
:10055000096888618F49096808618E49096848619E
:100560008C49096888618E4948600860886010BDC0
:100570002DE9FC5F82460C469346C4F800A0D4E9FE
:1005800000010AF0FBFAA060A0680AF053F9051E0A
:1005900001DB294600E0694208460AF087F9064671
:1005A00059460AF0AFFA02D24FF0000906E04FF0C8
:1005B0000109A168206A09F0D9FF2062D4E902018B
:1005C0000AF0DCFA0746A1690AF0D0F90546484668
:1005D0000AF084F9009061690AF0C8F98046216A3E
:1005E0000AF0C4F90746A16820690AF0BFF9394644
:1005F000019009F0BBFF0646294609F0B7FFE0610C
:10060000A068E060E06909F085FF07460022654BBD
:1006100009F0A6FC054609F051FA6060BDE8FC9FB0
:100620000EB56148D0F8A8005949096848605E488D
:10063000D0F8AC00584909684860594800680090F3
:10064000574840680190594A514900980968FFF796
:100650008FFF564A504901980968FFF789FF4C48B7
:1006600000684068524908604B480068406851493A
:1006700008600EBD2DE9F74F88B08B4614465946E9
:1006800008980AF07BFA804621460AF077FA074676
:100690000AF0ECF885B2594608980AF06FFA8046DD
:1006A00021460AF06BFA07460AF0E0F886B259468E
:1006B000089809F05BFF8046214609F057FF07467E
:1006C0000AF0D4F81FFA80F95946089809F04EFF4D
:1006D0008046214609F04AFF07460AF0C7F81FFA8C
:1006E00080FA40F2E730854200DB054640F2E73011
:1006F000864200DB064640F2E730814500DB81465A
:1007000040F2E730824500DB8246002D00DC002508
:10071000002E00DC0026B9F1000F01DC4FF00009CB
:10072000BAF1000F01DC4FF0000A23A007F038F9FE
:10073000294627A007F034F9314629A007F030F9FF
:1007400049462BA007F02CF951462DA007F028F9B7
:10075000584609F0DFFE07468846204609F0DAFED3
:10076000CDE90601089809F0D5FECDE90278CDE97A
:100770000401DDE90601CDE9000125A0DDE904233E
:1007800007F00EF92EA007F00BF90BB0BDE8F08FC3
:10079000140000201C000020180000200000204150
:1007A000480100200000F03FF80600200000484209
:1007B00020000020240000202A2A2A4D4F544F5F99
:1007C00050574DD6B5B4F2D3A12A2A2A0A00000008
:1007D0004D4F544F315F50574D3D25640A00000086
:1007E0004D4F544F325F50574D3D25640A00000075
:1007F0004D4F544F335F50574D3D25640A00000064
:100800004D4F544F345F50574D3D25640A00000052
:100810002066696E616C2E726F6C6C3D25660A20D5
:100820002066696E616C2E7961773D25660A2066C7
:10083000696E616C2E70697463683D25660A2000DC
:100840002A2A2A2A2A2AB4F2D3A1BDE1CAF82A2ADE
:100850002A2A2A2A0A0A000009488047094800472C
:10086000FEE7FEE7FEE7FEE7FEE7FEE7FEE7FEE760
:10087000FEE7FEE704480549054A064B70470000BD
:10088000070400083101000850090020500F002023
:10089000500B0020500B002031490143314A1160B8
:1008A000704770B5002100230F22C47804B32D4C8B
:1008B000246804F4E064C4F5E064210AC1F104038F
:1008C000CA40447804FA03F18478144021430901B2
:1008D000254C0678A155047804F01F050124AC408E
:1008E00005786D11AD0005F1E025C5F8004109E07E
:1008F000047804F01F050124AC401C4D06787611E5
:1009000045F8264070BD1A4A0A400243154B1B1F8A
:100910001A60704739B1134A121D12680243114B15
:100920001B1D1A6006E00F4A121D126882430D4B10
:100930001B1D1A607047042808D14FF0E021096997
:1009400041F004014FF0E022116107E04FF0E02197
:10095000096921F004014FF0E022116170470000A5
:100960000000FA050CED00E000E400E080E100E0AA
:1009700080FFFF1F10B50446FA48844208D10121C8
:10098000401500F0E3FD0021601500F0DFFD17E0E9
:10099000F548844208D10121001500F0D7FD00215F
:1009A000201500F0D3FD0BE0F048844208D101216E
:1009B000C80300F0CBFD00214FF4004000F0C6FD5D
:1009C00010BD30B50246002000235068E84C20409E
:1009D0000D790C6844EA0524204350609068E54C8A
:1009E0002040D1E902542C434D7944EA4504204388
:1009F0009060D06A20F470000C7C641EE4B2234343
:100A000040EA0350D06230BD0021016001714171A4
:100A10008160C16001210174704721B1826842F098
:100A20000102826003E0826822F001028260704766
:100A300021B1826842F48072826003E0826822F40D
:100A400080728260704710B50023CBB21AB144683F
:100A50001C43446002E044689C43446010BD8168CC
:100A600041F0080181607047014600208A6802F069
:100A700008020AB1012000E000207047816841F0BF
:100A8000040181607047014600208A6802F0040278
:100A90000AB1012000E00020704721B1826842F4D1
:100AA000A002826003E0826822F4A00282607047A4
:100AB000014600208A6802F480020AB1012000E0A9
:100AC0000020704710B50A4600210023416821F438
:100AD0006041531E41EA4331416010BD21B142687B
:100AE00042F40062426003E0426822F40062426025
:100AF0007047F0B504460D4600200021092D11DD98
:100B0000E068A5F10A0606EB4607072606FA07F194
:100B10008843A5F10A0606EB460603FA06F10843E8
:100B2000E0600CE0206905EB4507072606FA07F1AF
:100B3000884305EB450603FA06F108432061072ABE
:100B40000FDA606B561E06EB86071F2606FA07F1C2
:100B50008843561E06EB860605FA06F108436063D5
:100B600022E00D2A0FDA206BD61F06EB86071F2620
:100B700006FA07F18843D61F06EB860605FA06F14A
:100B80000843206310E0E06AA2F10D0606EB860739
:100B90001F2606FA07F18843A2F10D0606EB86062A
:100BA00005FA06F10843E062F0BD21B1826842F423
:100BB0008012826003E0826822F4801282607047B3
:100BC0000146C86C80B2704766484C300068704778
:100BD00021B1426842F48062426003E0426822F43C
:100BE00080624260704721B1426842F480524260A4
:100BF00003E0426822F48052426070470A460021B6
:100C0000816821F4E04111438160704721B182681D
:100C100042F40042826003E0826822F40042826073
:100C2000704721B1826842F40212826003E0826858
:100C300022F4021282607047014600208A6802F4A2
:100C400000120AB1012000E000207047F0B5044610
:100C50001546002000220026092911DDE068A1F1D7
:100C60000A0707EB470C072707FA0CF29043A1F19C
:100C70000A0707EB470703FA07F21043E0600CE0AE
:100C8000206901EB410C072707FA0CF2904301EBB6
:100C9000410703FA07F210432061A06BC0F301562D
:100CA000EF1C06F1010CA7EB0C0707EB870C1F27C5
:100CB00007FA0CF29043EF1C06F1010CA7EB0C07AE
:100CC00007EB870701FA07F21043A063F0BD10B5E8
:100CD0000A4600210023816B21F44011531E41EA92
:100CE0000351816310BD08B5002300930090009B61
:100CF0000B440093009B1A6008BD08B50246002013
:100D00000090009201F12800009B18440090009888
:100D1000006880B208BD0A4600214168164B1940A0
:100D20001143416070474162826270470A46002168
:100D3000416821F01F0111434160704740B10949EA
:100D40000831096841F40001064A0832116007E0E1
:100D500004490831096821F40001024A083211608F
:100D6000704700000024014000280140003C014081
:100D7000FFFEF0FFFDF7F1FFFFFD3FFF0246002001
:100D800013680B400BB1012000E000207047CA43FC
:100D90000260704770B502460020002300240B1249
:100DA0005568CEB205EA060415681D4015B10CB1B0
:100DB000012000E0002070BD00220A12D34303602E
:100DC00070470000002044490860091D0860091DA3
:100DD0000860091D086041483F49143108607047A8
:100DE00000213D498279002A3AD00A4612680368F8
:100DF0009A430B461A600A1D126803689A430B1D3A
:100E00001A60027911440A6803681A430A60324A78
:100E10000832126803689A432F4B08331A601A1D70
:100E2000126803689A432C4B0C331A604279102ADB
:100E30000ED11A1F126803681A43274B08331A6031
:100E40001A1D126803681A43234B0C331A600DE015
:100E50002149427911440A6803681A430A6005E08F
:100E6000027911440A6803689A430A6070470021B6
:100E7000016001710C214171002181717047164997
:100E8000103109680143144A10321160704701465D
:100E90000020114A143212680A400AB1012000E011
:100EA000002070470C49143108607047014600204B
:100EB0000022094B1B6803EA0102074B14331B682D
:100EC0000B4013B10AB1012000E000207047024935
:100ED000143108607047000000040140FFFF0F005C
:100EE00010B50446CC48844208D10121042000F00A
:100EF0002DFB0021042000F029FB46E0C748844276
:100F000008D10121082000F021FB0021082000F079
:100F10001DFB3AE0C248844208D10121102000F0B4
:100F200015FB0021102000F011FB2EE0BD4884428B
:100F300008D10121202000F009FB0021202000F031
:100F400005FB22E0B848844208D10121402000F08E
:100F5000FDFA0021402000F0F9FA16E0B34884427F
:100F600008D10121802000F0F1FA0021802000F05A
:100F7000EDFA0AE0AE48844207D10121801500F065
:100F8000E5FA0021A01500F0E1FA10BD10B501212D
:100F9000084600F0DBFA0021012000F0D7FA10BD6E
:100FA0002DE9F04102460025002600200023002400
:100FB000002791F803C00CF00F0591F803C00CF066
:100FC000100CBCF1000F03D091F802C04CEA0505EB
:100FD00091F800C0BCF1000F31D0146800202BE064
:100FE0004FF0010C0CFA00F3B1F800C00CEA030654
:100FF0009E4220D183004FF00F0C0CFA03F7BC4344
:1010000005FA03FC4CEA040491F803C0BCF1280F74
:1010100006D14FF0010C0CFA00FCC2F814C00AE033
:1010200091F803C0BCF1480F05D14FF0010C0CFA48
:1010300000FCC2F810C0401C0828D1D31460B1F8DD
:1010400000C0BCF1FF0F34DD546800202EE000F139
:10105000080C4FF0010808FA0CF3B1F800C00CEAD4
:1010600003069E4221D183004FF00F0C0CFA03F7C8
:10107000BC4305FA03FC4CEA040491F803C0BCF13C
:10108000280F05D100F1080C08FA0CF8C2F81480FA
:1010900091F803C0BCF1480F07D100F1080C4FF0E4
:1010A000010808FA0CF8C2F81080401C0828CED3BA
:1010B0005460BDE8F0814FF6FF710180022181701C
:1010C0000421C17070470246002093680B400BB1A9
:1010D000012000E0002070470146886880B2704718
:1010E00002460020D3680B400BB1012000E0002035
:1010F00070470146C86880B270470161704741611E
:1011000070470AB1016100E041617047C1607047FA
:101110004FF480320A43826181618261826982690F
:10112000704702460020434B18684FF68073184002
:1011300040EA021008433F4B186070473E49C861BF
:101140007047F0B50A46002300240021002500F076
:101150000046B6F1004F02D1364EF16901E0354E3E
:101160007168C0F3034583B200F44016B6F5401F22
:1011700008D121F070612F4E766826F070662D4FF1
:101180007E6012E000F48016B6F5801F06D10326BB
:1011900006FA05F4A14341F0706106E0460D360100
:1011A00003FA06F6B14341F0706122B1460D3601F3
:1011B00003FA06F6314300F00046B6F1004F02D1C3
:1011C0001C4EF16101E01B4E7160F0BD30B5002294
:1011D0008B071C0F0F2303FA04F2164B08338C10F5
:1011E00053F824309343134C08348D1044F82530C1
:1011F00023468C1053F824308C07240F00FA04F493
:1012000023430C4C08348D1044F8253030BD0A4976
:10121000DC3108607047000000080140000C01400C
:10122000001001400014014000180140001C014062
:10123000002001400000014000002042DF4800681B
:1012400040F00100DD49086008464068DC4908407C
:10125000DA49486008460068DA490840D74908601A
:101260000846006820F4802008600846406820F4A2
:10127000FE0048604FF41F0088607047CF4909683E
:1012800021F48031CD4A11601146096821F4802192
:101290001160B0F5803F03D0B0F5802F0ED106E08D
:1012A000C649096841F48031C44A116007E0C34966
:1012B000096841F4A021C14A116000E000BF00BFED
:1012C000704710B501460022002300204A11012A70
:1012D00002D1BA4C236806E0022A02D1B74C236A35
:1012E00001E0B64C636A01F01F02012494401C40E7
:1012F0000CB1012000E0002010BD38B500200090A6
:101300000024002500BF3120FFF7DBFF05460098D1
:10131000401C00900098B0F5A06F01D0002DF2D0D5
:101320003120FFF7CEFF08B1012400E00024204661
:1013300038BD01460020A14A106820F0F80040EABC
:10134000C10010607047A049086070470246002045
:101350009A4B586820F47C1042EA01031843974BDB
:101360005860704798490866704701460020934AC4
:10137000506820F003000843506070478F48406871
:1013800000F00C007047014600208C4A506820F0A5
:10139000F00008435060704701460020874A5068BB
:1013A00020F4E06008435060704701460020834A03
:1013B000506820F4605040EAC1005060704729B185
:1013C0007E4A527A02437D4B5A7204E07B4A527A3B
:1013D00082437A4B5A7270477B49D8310860704714
:1013E00001460020754A506820F440400843506090
:1013F00070470021714A20321170704A82F8201023
:10140000012802D004280AD104E001216B4A2032CD
:10141000117005E00521694A2032117000E000BF1B
:1014200000BF70476949086070476449096A014311
:10143000624A11627047654944390860704730B5A7
:1014400000210022002400235C4D6D6805F00C0192
:1014500021B1042905D0082923D105E05C4D0560A0
:1014600022E05B4D05601FE0544D6D6805F470127D
:10147000524D6D6805F48034022505EB92421CB98B
:10148000544D554305600BE04C4D6D6805F4003537
:101490001DB1504D5543056002E04D4D554305606B
:1014A00002E04B4D056000BF00BF444D6D6805F084
:1014B000F0010909484D6B5C0568DD4045603F4D12
:1014C0006D6805F4E061090A434D6B5C4568DD40D9
:1014D00085603A4D6D6805F46051C90A3E4D6B5CFC
:1014E0004568DD40C560354D6D6805F44041890BA8
:1014F0003A4D6B5CC568B5FBF3F5056130BD29B1AC
:101500002E4A526902432D4B5A6104E02B4A52691C
:1015100082432A4B5A61704729B1284A9269024393
:10152000264B9A6104E0254A92698243234B9A61D3
:10153000704729B1214AD2690243204BDA6104E0A5
:101540001E4AD26982431D4BDA61704729B11B4A9A
:10155000D2680243194BDA6004E0184AD268824329
:10156000164BDA60704729B1144A12690243134BD3
:101570001A6104E0114A12698243104B1A617047E4
:1015800012494039086070470F49C86470470B49D9
:10159000C87170470948406A40F080700749486246
:1015A000704701460020054A92680A400AB10120AE
:1015B00000E0002070470149887270470010024027
:1015C0000000FFF8FFFFF6FE0000424280044242A6
:1015D00000127A0000093D002C0000203C00002091
:1015E00010B50446FE48844208D10121C014FFF71B
:1015F000ADFF0021E014FFF7A9FFC4E0B4F1804F74
:1016000008D101210846FFF7AEFF00210120FFF7B6
:10161000AAFFB8E0F348844208D101210220FFF775
:10162000A2FF00210220FFF79EFFACE0EE488442BB
:1016300008D101210420FFF796FF00210420FFF7C5
:1016400092FFA0E0E948844208D101210820FFF779
:101650008AFF00210820FFF786FF94E0E4488442D7
:1016600008D101211020FFF77EFF00211020FFF795
:101670007AFF88E0DF48844208D101212020FFF76B
:1016800072FF00212020FFF76EFF7CE0DA488442E1
:1016900008D101214014FFF759FF00216014FFF722
:1016A00055FF70E0D548844209D10121C804FFF7F5
:1016B0004DFF00214FF40020FFF748FF63E0D048C2
:1016C000844209D101210805FFF740FF00214FF4B2
:1016D0008010FFF73BFF56E0CA48844209D1012140
:1016E0004805FFF733FF00214FF40010FFF72EFFEE
:1016F00049E0C548844208D101214020FFF733FF6B
:1017000000214020FFF72FFF3DE0C048844208D170
:1017100001218020FFF727FF00218020FFF723FF12
:1017200031E0BB48844208D101218015FFF71BFF3F
:101730000021A015FFF717FF25E0B648844209D124
:1017400001210804FFF702FF00214FF48030FFF76A
:10175000FDFE18E0B048844209D101214804FFF79A
:10176000F5FE00214FF40030FFF7F0FE0BE0AB4830
:10177000844208D101218804FFF7E8FE00214FF4DC
:101780008020FFF7E3FE10BD00220288944B9842B0
:101790000ED0994B98420BD0B0F1804F08D0914BAE
:1017A000984205D0904B984202D0904B984204D179
:1017B0004FF68F731A404B881A438D4B984207D0CF
:1017C0008C4B984204D04FF6FF431A40CB881A4303
:1017D00002808B8883850B880385814B98420BD0D0
:1017E000854B984208D08B4B984205D08A4B984243
:1017F00002D08A4B984201D10B7A0386012383825F
:10180000704770B5002400220023058C4FF6FE7649
:1018100035400584028C8388048B4FF68F752C40ED
:10182000B51E2C400D882C43751E2A400D892A4375
:101830004D882A436A4DA8420BD06F4DA84208D06C
:10184000744DA84205D0744DA84202D0734DA842F1
:1018500013D14FF6F7752A404D892A434FF6FB7591
:101860002A408D882A434FF6FF652B404FF6FF55DF
:101870002B408D892B43CD892B4383800483CD88D6
:101880008586028470BD70B5002400220023058C7B
:101890004FF6EF7635400584028C8388048B48F63A
:1018A000FF752C404FF6FF452C400D884FF6FF7614
:1018B00006EA05252C434FF6DF752A400D8906EA16
:1018C00005152A434D8806EA05152A43444DA842CA
:1018D00002D0494DA8421DD14FF67F752A404D894F
:1018E0004FF6FF7606EA05152A434FF6BF752A40E4
:1018F0008D8806EA05152A434FF6FF352B404FF237
:10190000FF752B408D8906EA85052B43CD8906EAB4
:1019100085052B4383800483CD880587028470BDB1
:1019200070B5002400220023058C4FF6FF66354079
:101930000584028C8388848B4FF68F752C404FF67C
:10194000FC752C400D882C434FF6FF552A400D891D
:101950004FF6FF7606EA05252A434D8806EA052557
:101960002A431F4DA84202D0234DA8421DD14FF259
:10197000FF752A404D894FF6FF7606EA05252A4372
:101980004FF6FF352A408D8806EA05252A434EF694
:10199000FF752B404DF6FF752B408D8906EA051526
:1019A0002B43CD8906EA05152B4383808483CD889C
:1019B0008587028470BD70B5002200230024058C49
:1019C0004EF6FF7635400584038C8488828B48F67A
:1019D000FF752A404FF6FF452A400D8820E00000A1
:1019E000002C01400004004000080040000C0040B2
:1019F000001000400014004000340140004C014041
:101A0000005001400054014000180040001C0040FC
:101A100000200040004001400044014000480140D7
:101A20004FF6FF7606EA05252A434DF6FF752B4053
:101A30000D8906EA05352B434D8806EA05352B430B
:101A4000FA4DA84202D0FA4DA84208D14BF6FF75D4
:101A50002C408D894FF6FF7606EA85152C4384804D
:101A60008283CD88A0F84050038470BD828B4FF2F2
:101A7000FF331A408283828B4FF6FF7303EA012300
:101A80001A4382837047F0B50C46154600220021A8
:101A90000026078C4EF6FF7C07EA0C070784828B32
:101AA000018C4FF6FF7707EA043640F6FF473A40CD
:101AB0004FF6FF7707EA05273A434FF6FF7707EA25
:101AC00003373A43D94FB8420ED0D94FB8420BD062
:101AD000B0F1804F08D0D74FB84205D0D64FB842AA
:101AE00002D0D64FB84206D14DF6FF77394046F4C2
:101AF0008057394305E047F6FF57394044F4805793
:101B0000394382830184F0BD828B4FF6F3731A4010
:101B10008283828B0A4382837047F0B50C46154658
:101B2000002200210026078C4FF6FF6C07EA0C0705
:101B30000784828B018C4FF6FF7707EA04264FF665
:101B40000C773A404FF6FF7707EA03172F433A43E3
:101B5000B64FB8420ED0B64FB8420BD0B0F1804F5E
:101B600008D0B44FB84205D0B34FB84202D0B34FFB
:101B7000B84206D14FF6FF57394046F480773943D3
:101B800005E04FF2FF57394044F4807739438283B0
:101B90000184F0BD028B4FF2FF331A400283028BA7
:101BA0004FF6FF7303EA01231A4302837047F0B52F
:101BB0000C461546002200210026078C4FF6EF7CCC
:101BC00007EA0C070784028B018C4FF6FF7707EAC0
:101BD000041640F6FF473A404FF6FF7707EA03370F
:101BE0003A434FF6FF7707EA05273A438F4FB8424B
:101BF0000ED08F4FB8420BD0B0F1804F08D08D4F30
:101C0000B84205D08C4FB84202D08C4FB84206D1B2
:101C10004FF6DF77394046F01007394305E04FF6BD
:101C20005F77394044F01007394302830184F0BDE7
:101C3000028B4FF6F3731A400283028B0A4302832E
:101C40007047F0B50C46154600220021068C4FF671
:101C5000FE773E400684028B018C4FF60C763240B4
:101C60007E1C06EA03162E433243704EB0420ED05D
:101C70006F4EB0420BD0B0F1804F08D06D4EB042E5
:101C800005D06D4EB04202D06C4EB04206D14FF638
:101C9000FD76314044F00106314305E04FF6F5761C
:101CA000314044F00106314302830184F0BD70B538
:101CB00005460C465D4885420ED05D4885420BD0F6
:101CC000B5F1804F08D05B48854205D05A4885421F
:101CD00002D05A48854200D100E000BF208850B9A8
:101CE0002389A28861882846FFF7ABFFE188284650
:101CF000FFF79EFF25E0208804280AD12389A288C7
:101D000061882846FFF753FFE1882846FFF742FF26
:101D100017E0208808280AD12389A28861882846EC
:101D2000FFF7FBFEE1882846FFF7EEFE09E0238976
:101D3000A28861882846FFF7A6FEE1882846FFF7BB
:101D400095FE70BD2DE9F04105460C4600260127A1
:101D5000608808B9022600E00026A088012801D189
:101D6000022700E001272088A0B92389A288618882
:101D70002846FFF766FFE1882846FFF759FF2389C9
:101D80003A4631462846FFF712FFE1882846FFF71A
:101D900001FF13E02389A28861882846FFF707FF27
:101DA000E1882846FFF7F6FE23893A463146284661
:101DB000FFF747FFE1882846FFF73AFFBDE8F081CB
:101DC0000A884B881A438B881A43CB881A430B899D
:101DD0001A434B891A438B891A43A0F84420704751
:101DE0004FF6FF71818000210180C1804180017226
:101DF00070470021018041808180C1800181418143
:101E00008181C18170470021018041800121818051
:101E10000021C180018170470021018041808180C3
:101E2000C18001814181818170470000002C014007
:101E3000003401400004004000080040000C004055
:101E400021B1028842F00102028004E002884FF6CC
:101E5000FE731A400280704731B1B0F8442042F45A
:101E60000042A0F8442005E0B0F84420C2F30E027E
:101E7000A0F8442070471AB183890B43838102E0A4
:101E800083898B43838170478182704741EA0203D3
:101E9000A0F8483070471AB183890B43838102E070
:101EA00083898B438381704701894FF6F872114013
:101EB000018170470A46002101894FF68F7319404E
:101EC00011430181704730B504460D46294620462E
:101ED000FFF7F0FF208940F00700208130BD2DE999
:101EE000F04104460D4616461F46602D06D13B467E
:101EF000012231462046FFF75AFE05E03B4601220B
:101F000031462046FFF79DFE29462046FFF7D2FFC7
:101F1000208940F007002081BDE8F08130B50C46F3
:101F200000210189C9B24FF6FF7505EA0325154363
:101F300025432943018130BD2DE9F04105460E4678
:101F400017469846002443463A4631462846FFF74E
:101F5000E5FF2C894FF6F870044044F007044FF673
:101F60008F70044044F070042C81BDE8F081F0B51E
:101F700004460D4616461F463B4632462946204635
:101F8000FFF7CCFF208940F480402081F0BD01851F
:101F9000828270470A46002101884FF68F731940EC
:101FA000114301807047F0B50C4615461E460021CE
:101FB000002200230189028B038C4FF6F877394009
:101FC00021434FF6FC473A4040F201173A434FF69F
:101FD000DD773B404FF6FF7707EA06172F433B4379
:101FE000018102830384F0BD0A460021018B4FF674
:101FF0008F7319401143018370470A460021018BFA
:1020000048F6FF7319404FF6FF7303EA02231943A2
:10201000018370470A460021818B4FF68F73194068
:102020001143818370470A460021818B48F6FF7374
:1020300019404FF6FF7303EA022319438183704767
:1020400021B1028842F08002028004E002884FF64B
:102050007F731A400280704721B1828842F00402E7
:10206000828004E082884FF6FB731A4082807047BA
:1020700021B1828842F00802828004E082884FF613
:10208000F7731A408280704721B1828842F00102C2
:10209000828004E082884FF6FE731A408280704787
:1020A0000A460021018B4FF6F77319401143018353
:1020B00070470A460021018B4FF2FF7319404FF61B
:1020C000FF7303EA02231943018370470A46002184
:1020D000818B4FF6F77319401143818370470A468D
:1020E0000021818B4FF2FF7319404FF6FF7303EA13
:1020F00002231943818370470A460021018B4FF662
:10210000FB7319401143018370470A460021018B7C
:102110004FF6FF3319404FF6FF7303EA02231943CA
:10212000018370470A460021818B4FF6FB731940EB
:102130001143818370470A460021818B4FF6FF339C
:1021400019404FF6FF7303EA022319438183704756
:102150000A460021018B4FF67F731940114301831A
:1021600070470A460021018BC1F30E014FF6FF7341
:1021700003EA02231943018370470A460021818B39
:102180004FF67F7319401143818370470A4600213F
:10219000818BC1F30E014FF6FF7303EA022319434B
:1021A000818370470A460021018C4FF6FD73194068
:1021B0001143018470470A460021018C4FF6F773E2
:1021C00019401143018470470A460021018C4FF6E3
:1021D000DF7319404FF6FF7303EA021319430184BA
:1021E00070470A460021018C4FF67F7319404FF665
:1021F000FF7303EA02131943018470470A46002162
:10220000018C4FF6FF5319404FF6FF7303EA022388
:102210001943018470470A460021018C4FF2FF7375
:1022200019404FF6FF7303EA0223194301847047F4
:102230000A460021018C4DF6FF7319404FF6FF73DB
:1022400003EA023319430184704730B500230124A7
:102250008C40A3B2048C9C430484048C02FA01F5E4
:10226000ADB22C43048430BD30B5002304248C402F
:10227000A3B2048C9C430484048C02FA01F5ADB231
:102280002C43048430BD70B503460020002418465A
:10229000183001258D40ACB21D8CA5431D8409B1B9
:1022A000082909D100EB6100056825F0700505607B
:1022B0000568154305600EE00D1FC5F34E05284463
:1022C000056825F4E045056005684FF6FF7606EAE7
:1022D00002263543056070BD21B1028842F002023A
:1022E000028004E002884FF6FD731A4002807047B6
:1022F00021B1028842F00402028004E002884FF615
:10230000FB731A400280704721B1828842F080023C
:10231000828004E082884FF67F731A408280704783
:1023200002884FF6F7731A40028002880A4302803F
:10233000704782884FF68F731A40828082880A43E2
:102340008280704702894FF6F8731A400281028931
:102350000A430281704702894FF67F731A40028157
:1023600002890A43028170478184704781857047E2
:10237000818670470187704781877047A0F84010B9
:10238000704702884FF6FF431A40028002880A43D2
:10239000028070470146888E70470146088F70475B
:1023A0000146888F70470146B1F8400070470146EA
:1023B000888C70470146088D704702460020138ABA
:1023C0000B400BB1012000E000207047CA4302829D
:1023D000704730B50246002000230024158A05EA24
:1023E0000103958905EA010413B10CB1012000E055
:1023F000002030BDCA4302827047000010B5044679
:10240000FB48844209D101218803FFF79FF800218E
:102410004FF48040FFF79AF832E0F648844209D141
:1024200001214804FFF79FF800214FF40030FFF727
:102430009AF825E0F048844209D101218804FFF789
:1024400092F800214FF48020FFF78DF818E0EB4858
:10245000844209D10121C804FFF785F800214FF417
:102460000020FFF780F80BE0E548844208D1012105
:102470000805FFF778F800214FF48010FFF773F894
:1024800010BD2DE9F04786B005460E460024A24651
:1024900000BFA1460027B08900B100BF2F462C8A9B
:1024A0004CF6FF700440F08804432C82AC894EF651
:1024B000F3100440B088318908437189084304430C
:1024C000AC81AC8A4FF6FF400440B0890443AC8233
:1024D00001A8FEF7B4FFC648874202D1DDF810A07C
:1024E00001E0DDF80CA0A88900F4004040B10AEB3F
:1024F000CA0000EB0A1031684900B0FBF1F807E0B0
:102500000AEBCA0000EB0A1031688900B0FBF1F851
:102510006420B8FBF0F004012009642101FB10895C
:10252000A88900F4004040B1322000EBC900B0FBA4
:10253000F1F000F00700044308E0322000EB09103E
:102540006421B0FBF1F000F00F0004432C8106B0D1
:10255000BDE8F0874FF41651016000218180C180F1
:1025600001810C21418100218181704710B5024613
:102570000020108A4FF2FF0318400B884C88234339
:102580008C882343CC8823431843108210BD00213C
:10259000018041808180C180704721B1828942F4ED
:1025A0000052828104E082894DF6FF731A408281D5
:1025B0007047F0B50346002400260025002040F6B1
:1025C0006A17B94200D100BF1846C1F3421401F0A6
:1025D0001F06012707FA06F5012C01D10C3004E093
:1025E000022C01D1103000E014301AB107682F43DB
:1025F000076002E00768AF430760F0BD1AB1838A45
:102600000B43838202E0838A8B4383827047028A72
:102610004FF6F0731A400282028A0A430282704720
:1026200082894FF2FF731A40828182890A43828134
:10263000704721B1828942F00202828104E08289DE
:102640004FF6FD731A4082817047028A4FF6DF739E
:102650001A400282028A0A430282704721B1028A2A
:1026600042F48042028204E0028A4BF6FF731A4071
:1026700002827047C1F30802828070470146888851
:10268000C0F308007047818941F0010181817047E2
:10269000028BD2B20283028B42EA0122028370478C
:1026A000028B02F47F420283028B0A43028370474B
:1026B00021B1828A42F02002828204E0828A4FF6AF
:1026C000DF731A408282704721B1828A42F0100281
:1026D000828204E0828A4FF6EF731A40828270474A
:1026E00021B1828A42F00802828204E0828A4FF697
:1026F000F7731A408282704721B1828942F4004206
:10270000828103E08289C2F30E028281704721B187
:10271000828A42F40062828204E0828A4FF2FF736E
:102720001A4082827047828A4FF6FB731A40828277
:10273000828A0A438282704721B1828A42F0020271
:10274000828204E0828A4FF6FD731A4082827047CB
:1027500002460020B1F5007F00D100BF13880B4076
:102760000BB1012000E00020704701F40072B2F5C7
:10277000007F00D100BFCA430280704770B5024697
:10278000002400230025002040F66A16B14200D143
:1027900000BFC1F3421501F01F03012606FA03F33F
:1027A000012D02D19689334006E0022D02D1168A0E
:1027B000334001E0968A33400C12012606FA04F4F5
:1027C0001688344013B10CB1012000E0002070BD28
:1027D00010B50022002340F66A14A14200D100BFC8
:1027E0000A1201249440A3B2DC43048010BD00000F
:1027F000003801400044004000480040004C0040C8
:102800000050004010B56FF00400FEF794F82E4819
:1028100000682E49B0FBF1F02D4908700846007899
:1028200000EB4001C1EBC0104FF6FF7101EAC000A0
:102830002849088010BD0146254A12784A434FF0C6
:10284000E0235A6100229A611A46126942F001029D
:102850001A6100BF4FF0E022106900F001021AB1C6
:1028600000F48032002AF5D04FF0E022126922F005
:1028700001024FF0E0231A6100229A61704701467D
:10288000144A12884A434FF0E0235A6100229A61A9
:102890001A46126942F001021A6100BF4FF0E022AD
:1028A000106900F001021AB100F48032002AF5D05C
:1028B0004FF0E022126922F001024FF0E0231A618A
:1028C00000229A61704700000000002000127A0088
:1028D000400000204200002010B54FF4A060FDF73A
:1028E000DBFF10BD2DE9F0410746884614461D4622
:1028F000FFF7F2FFC5F1040007FA00F60F202841A8
:1029000000EA0800064306F00F06E21704EBD26265
:102910005211920002F1E022D2F800212146E31781
:1029200004EBD3635B11A4EB431C012303FA0CF308
:102930001A432046E31704EBD3635B119B0003F1BA
:10294000E023C3F800213F48005D40EA06103D49FE
:102950000855BDE8F0813C4A0A4002433B4B1A60EF
:10296000704700B500203A490861C86014204861EA
:1029700000208861C8610846006840F001000860D6
:1029800008464068334908403149486008460068B5
:10299000314908402E4908600846006820F480202C
:1029A00008600846406820F4FE0048600020886007
:1029B00000214FF00060FFF7CEFF00BD30B50446A8
:1029C0000025FFF7CEFF2248006840F48030204900
:1029D000086000BF1E480068400C0028FAD04FF481
:1029E00080601B494860A01EC4B20846406840EAA7
:1029F000844048600846406840F48030486017488A
:102A0000006840F03200154908601148006840F045
:102A100080700F49086000BF0D480068400E002814
:102A2000FAD00B48406840F002000949486005E0D0
:102A300007484068C0F3870505F00305022DF7D16C
:102A400030BD000000E400E080FFFF1F08ED00E063
:102A5000001002400000FFF8FFFFF6FE00200240D9
:102A600038B50446F74890F82400C0B114B10220EC
:102A7000009001E000200090F24A1268D17BF14AF8
:102A8000526810786B46012203F09CF910B14FF0A8
:102A9000FF3038BD9DF80010EA48417423E0E94852
:102AA000807A10B94FF0FF30F3E724B1E548407C5D
:102AB00008B10020EDE714B10120009001E00020F2
:102AC0000090E04A1268D17BDE4A526810786B466B
:102AD000012203F077F910B14FF0FF30D9E79DF8EC
:102AE0000010D84841740020D3E738B500241FE017
:102AF000D4480068C07AA04204D0D2480068407D23
:102B0000A04200D112E0CF49496808786B46012203
:102B1000214603F087F910B14FF0FF3038BD9DF822
:102B200000202146C8A004F03BFF00BF601CC4B2D7
:102B3000C44840680079A042DADC0020EEE770B5B6
:102B400004460D46BF480068C07AA04204D0BD4884
:102B50000068407DA04202D14FF0FF3070BDB948FF
:102B600040680079A04202DC4FF0FF30F6E7B5493B
:102B7000496808782B460122214603F053F9EDE716
:102B800038B50446AF4890F82300A04201D1002098
:102B900038BD14B13020009001E000200090A94819
:102BA000807C20B19DF8000040F002000090A54814
:102BB00090F8220020B19DF8000040F080000090C5
:102BC000A04A1268117D9F4A526810786B46012214
:102BD00003F0F8F810B14FF0FF30D9E7994880F8CA
:102BE00023400020D4E738B5044604F0700010B14B
:102BF0000120009005E014B10020009001E0402089
:102C00000090904A1268917C8E4A526810786B4608
:102C1000012203F0D7F820B100218A488172481EB2
:102C200038BD9DF8000020F0400186480173002067
:102C3000009004F0400020B99DF8000040F004002E
:102C4000009004F0200020B99DF8000040F0020040
:102C5000009004F0100020B99DF8000040F0010041
:102C6000009004F0080020B99DF8000040F0380002
:102C70000090744A1268D17C724A526810786B4690
:102C8000012203F09FF820B100216E488172481E96
:102C9000C6E724B1082C02D00020FFF771FF694875
:102CA0008472002101753220FFF7E9FD0020B7E7AB
:102CB00038B504466348807CA04201D1002038BD6D
:102CC000002C46D05F4A126811795E4A526810782B
:102CD0006B46012203F0A6F810B14FF0FF30EEE78B
:102CE0009DF8000020F020000090564A12681179EB
:102CF000544A526810786B46012203F063F810B111
:102D00004FF0FF30DBE70320FFF7B9FD0220009012
:102D10004C4890F8220020B19DF8000040F080005F
:102D20000090484890F8230020B19DF8000040F042
:102D300030000090434A1268117D424A5268107870
:102D40006B46012203F03EF8002851D04FF0FF30CF
:102D5000B5E73C4A126811793A4A526810786B46D6
:102D6000012203F05FF810B14FF0FF30A7E73548BC
:102D7000807A00F0010028B19DF8000040F02000AA
:102D8000009004E09DF8000020F0200000902D4A03
:102D9000126811792B4A526810786B46012203F0B1
:102DA00011F810B14FF0FF3089E70320FFF767FDFE
:102DB000244890F8220010B18020009001E000200B
:102DC0000090204890F8230020B19DF8000040F0CA
:102DD000300000901B4A1268117D1A4A5268107820
:102DE0006B46012202F0EEFF10B14FF0FF3066E7B4
:102DF00014488474002062E708B51248807A10B93C
:102E00004FF0FF3008BD002000900E4A1268D17BC1
:102E10000C4A526810786B46012202F0D3FF10B1C1
:102E20004FF0FF30EEE7074A12685179054A5268C1
:102E300010786B46012202F0C5FF68B14FF0FF30F9
:102E4000E0E7000044000020252335783A202523C0
:102E500035780D0A00000000F84A12681179F74A27
:102E6000526810786B46012202F0ACFF10B14FF0AF
:102E7000FF30C7E7F14890F82400002853D00C2019
:102E80000090EE4A12681179EC4A526810786B464D
:102E9000012202F097FF10B14FF0FF30B2E732206D
:102EA000FFF7EDFCC0200090E448807A00F00100BC
:102EB00020B19DF8000040F020000090DF4A126829
:102EC0001179DE4A526810786B46012202F07AFFCF
:102ED00010B14FF0FF3095E7D848407C10B1022088
:102EE000009001E000200090D44A1268D17BD34AC0
:102EF000526810786B46012202F064FF10B14FF067
:102F0000FF307FE700200090CC4A12685179CB4A0D
:102F1000526810786B46012202F054FF002855D009
:102F20004FF0FF306EE704200090C44A1268117918
:102F3000C24A526810786B46012202F043FF10B17A
:102F40004FF0FF305EE7BD48807C20B9BB48807AF7
:102F500000F0010010B94020009001E060200090D6
:102F6000B64A12681179B54A526810786B46012248
:102F700002F028FF10B14FF0FF3043E73220FFF797
:102F80007EFCAE48407C10B10120009001E00020A2
:102F90000090AA4A1268D17BA84A526810786B4602
:102FA000012202F00FFF10B14FF0FF302AE7A34AD1
:102FB00012685179A14A52681078A04B103301224F
:102FC00002F000FF10B14FF0FF301BE7002019E7BF
:102FD00070B50446002624F00104984890F82400B7
:102FE00008B1002070BD9548807A10B94FF0FF30CD
:102FF000F8E79248057C807A20409049087408469A
:10300000007CA04202D04FF0FF3600E0002614B949
:103010008A48007D18B10120FFF722FD02E0002060
:10302000FFF71EFD3CB1FFF7E7FE20B183480574B2
:103030004FF0FF30D6E73046D4E738B504467F4836
:10304000807A10B94FF0FF3038BDBC2C02DB012074
:10305000009015E0622C02DB0220009010E02A2C88
:1030600002DB032000900BE0142C02DB0420009014
:1030700006E00A2C02DB0520009001E0062000900B
:103080006E48C07A9DF80010884201D10020DBE72D
:103090006A4A12689178694A526810786B46012230
:1030A00002F090FE10B14FF0FF30CDE79DF8001018
:1030B0006248C1720020C7E738B50446282C02DDFB
:1030C0004FF0FF3038BDDCB90020FFF759FD00207C
:1030D0008DF8000007208DF80100584A1268917C95
:1030E000564A526810786B46022202F06BFE10B10D
:1030F0004FF0FF30E6E70021504801750020E1E77E
:103100000120FFF73DFD20208DF80000012C06D1A5
:1031100000208DF801000520FFF78FFF17E0052C38
:1031200006DC01208DF801000520FFF786FF0EE088
:10313000142C06DC02208DF801000A20FFF77DFF29
:1031400005E003208DF801001420FFF776FF9DF8BD
:103150000100072101EB8010C0B28DF80100374A51
:103160001268917C354A526810786B46022202F050
:1031700029FE10B14FF0FF30A4E708212F488172DB
:1031800000210173012101750020FFF721FF0020BC
:1031900098E738B504462948807A10B94FF0FF30D7
:1031A00038BD264890F8240010B14FF0FF30F7E703
:1031B0002248007D50B134B1282C04DCE0B2FFF786
:1031C0007BFF0020ECE70020FFF776FF042C01DAFC
:1031D000042404E0B4F57A7F01DD4FF47A744FF4EF
:1031E0007A7090FBF4F0401EC0B20090134A12684F
:1031F0005178124A526810786B46012202F0E2FDC3
:1032000010B14FF0FF30CBE79DF80000401C4FF4A9
:103210007A7191FBF0F081B20848C1810146C989F9
:103220004810FFF70AFF0020BAE738B50446034804
:10323000807A28B94FF0FF3038BD000044000020EC
:10324000022C06D0042C07D0082C08D0102C0CD14E
:1032500008E0002000900BE00820009008E010201B
:10326000009005E01820009002E04FF0FF30E3E707
:1032700000BFFE48407A9DF80010B0EBE10F01D18D
:103280000020D9E7F94A1268D179F84A52681078D3
:103290006B46012202F096FD10B14FF0FF30CBE7F4
:1032A0009DF80000C110F14841720020C4E738B514
:1032B0000446EE48807A10B94FF0FF3038BDFA2C42
:1032C00009D0B4F5FA7F09D0B4F57A7F09D0B4F506
:1032D000FA6F0CD108E0002000900BE0082000906D
:1032E00008E01020009005E01820009002E04FF068
:1032F000FF30E3E700BFDD48007A9DF80010B0EB37
:10330000E10F01D10020D9E7D84A12689179D74A54
:10331000526810786B46012202F054FD10B14FF054
:10332000FF30CBE79DF80000C010D04908720020A4
:10333000C4E71CB580208DF80000CC4A1268917C4F
:10334000CA4A526810786B46012202F03BFD10B168
:103350004FF0FF301CBD6420FFF791FA00208DF87C
:103360000000C24A1268917CC04A526810786B46CD
:10337000012202F027FD10B14FF0FF30EAE7BB4A0F
:103380001268917DB94A526810786B46062202F0A5
:1033900049FD10B14FF0FF30DCE79DF80500C00794
:1033A000400F9DF8031001F0010140EA41009DF833
:1033B000011001F0010140EA010494B1012C03D194
:1033C0000121AA48C17431E0022C03D10021A74891
:1033D000C1742BE02146A6A004F0E2FA4FF0FF30C2
:1033E000B8E7A24A1268D178A04A526810786B46B2
:1033F000012202F017FD10B14FF0FF30AAE79DF84F
:10340000000000F00F042CB9A34804F0C9FA4FF0F3
:10341000FF309FE7042C06D1A0A004F0C1FA0121DF
:103420009248C17402E000219048C174FF218F4886
:103430008172FF208D490872FF218C484172C17250
:103440004FF6FF71C181FF21017481740121017365
:1034500080F82210002180F8231041750175163084
:10346000016041608160163880F8241080F82510D2
:10347000C1844FF4FA60FFF71AFF10B14FF0FF302C
:1034800068E70220FFF7D1FE10B14FF0FF3061E78F
:103490002A20FFF7D2FD10B14FF0FF305AE732205B
:1034A000FFF777FE10B14FF0FF3053E70020FFF732
:1034B0008FFD10B14FF0FF304CE70020FFF7F8FB15
:1034C00010B14FF0FF3045E70020FFF78CFB0020E4
:1034D00040E770477CB504460D466448807A00F0AA
:1034E000700010B94FF0FF307CBD604A1268117B4C
:1034F0005E4A526810786B46062202F093FC10B1C7
:103500004FF0FF30F0E79DF801009DF8001040EA11
:10351000012000B220809DF803009DF8021040EACF
:10352000012000B260809DF805009DF8041040EA7B
:10353000012000B2A08015B12846FFF7CAFF002085
:10354000D2E77CB504460D464848807A00F0080072
:1035500010B94FF0FF307CBD444A1268517B434A9A
:10356000526810786B46062202F05CFC10B14FF0F6
:10357000FF30F0E79DF801009DF8001040EA0120BF
:1035800000B220809DF803009DF8021040EA01205F
:1035900000B260809DF805009DF8041040EA01200B
:1035A00000B2A08015B12846FFF793FF0020D2E7B4
:1035B0002DE9F84F6B4602224121682002F032FCCF
:1035C0009DF801009DF8001040EA01200FFA80FAF2
:1035D000504606F0ADFC80460022384B06F050FB0A
:1035E0000646374A374B06F09BFA044606F066FA61
:1035F00083463549584607F0B9F9044607F01AF9E9
:1036000000B2BDE8F88F10B588B004461CB94FF081
:10361000FF3008B010BD206828B9606818B9A068EC
:1036200008B90020F5E711494968087806AB03227C
:10363000114602F0F7FB10B14FF0FF30E9E79DF8BB
:103640001800082101EB201000F00F00ADF8000079
:103650009DF8190001EB201000F00F00ADF80200FA
:103660009DF81A0001EB201030E00000440000201B
:10367000556E737570706F7274656420736F6674C5
:10368000776172652070726F6475637420726576FD
:103690002025642E0A000000CCC5000848616C6635
:1036A0002073656E736974697669747920706172CC
:1036B0007420666F756E642E0A000000004075402D
:1036C000A4703D0AD74342400000C84200F00F00FA
:1036D000ADF8040020684100BDF90000403091FBC6
:1036E000F0F000B2ADF8100060684100BDF90200D2
:1036F000403091FBF0F000B2ADF81200A06841003C
:10370000BDF90400403091FBF0F000B2ADF81400B8
:10371000FE494968087806AB0622114602F082FB92
:1037200010B14FF0FF3074E79DF819009DF81810A4
:1037300040EA012000B2ADF808009DF81B009DF89A
:103740001A1040EA012000B2ADF80A009DF81D00F1
:103750009DF81C1040EA012000B2ADF80C00BDF845
:103760001000BDF80810084400B2ADF81000BDF814
:103770001200BDF80A10084400B2ADF81200BDF8FE
:103780001400BDF80C10084400B2ADF81400BDF8E8
:103790001000000A8DF81800BDF81000C0B28DF8B6
:1037A0001900BDF81200000A8DF81A00BDF81200C9
:1037B000C0B28DF81B00BDF81400000A8DF81C0083
:1037C000BDF81400C0B28DF81D00D04949680878D2
:1037D00006AB0622114602F0F5FA10B14FF0FF30A9
:1037E00017E7002015E70146C848007A30B10128E4
:1037F00007D0022809D003280FD10AE0FA20088058
:103800000EE04FF4FA7008800AE04FF47A700880F6
:1038100006E04FF4FA60088002E00020088000BF54
:1038200000BF002070470146B848407A30B10128F7
:1038300007D0022808D003280CD108E00220087025
:103840000BE00420087008E00820087005E0102054
:10385000087002E04FF0FF30704700BFAB48C07CFB
:1038600018B108784006000E08700020F4E7014601
:10387000A648C07A082817D2DFE800F01704070A24
:103880000D101318BC20088013E06220088010E09F
:103890002A2008800DE0142008800AE00A20088011
:1038A00007E00520088004E000BF00BF002008807A
:1038B00000BF00BF002070470146944890F82400E4
:1038C00010B14FF0FF3070479048C0890880002049
:1038D000F9E7014600200880401E704701464FF07E
:1038E000FF30704701468948007A30B1012807D07F
:1038F000022808D003280CD108E0854808600BE0B6
:103900008448086008E08448086005E0834808604F
:1039100002E04FF0FF30704700BF0020FBE7014698
:103920007A48407A30B1012808D002280AD003280A
:1039300010D10BE04FF4804008800EE041F69C70FF
:1039400008800AE04FF48050088006E04FF40060E1
:10395000088002E04FF0FF30704700BF6B48C07C2A
:1039600010B10888401008800020F5E7014667483C
:10397000007C08700020704701466448807A10B1CE
:103980000120087001E0002008700020704738B561
:1039900004465E48807A10B94FF0FF3038BD5B4A6C
:1039A0001268117C594A526810786B46022202F064
:1039B00039FA10B14FF0FF30F0E79DF801009DF8A3
:1039C000001040EA012000B220800020E6E72DE947
:1039D000FE4F0746884692461D46DDF830B0002669
:1039E00000244A4890F8240010B1601EBDE8FE8F04
:1039F000002028704548807A10B94FF0FF30F5E775
:103A00004248007C10B94FF0FF30EFE73F48007CA0
:103A100000F0400008B1B01CC6B23C48007C00F089
:103A2000200008B1B01CC6B23848007C00F010007D
:103A300008B1B01CC6B23548007C00F0080008B1DF
:103A4000B01DC6B2314A1268917A304A5268107875
:103A50006B46022202F0E6F910B14FF0FF30C5E7E5
:103A60009DF801009DF8001040EA0129B14501DAF6
:103A70000020BBE7254840684088B9EB600F17DDA0
:103A8000224A1268517C214A526810786B46012202
:103A900002F0C8F910B14FF0FF30A7E79DF8000021
:103AA00000F0100020B1FFF7A7F96FF001009DE7CB
:103AB0005046FFF70EFD154A1268D17A134A526834
:103AC00010786B46324602F0ADF910B14FF0FF307E
:103AD0008CE799FBF6F0401E8BF800000020287060
:103AE000B44235D00948007C00F0080080B3601C67
:103AF0001DF800001DF8041040EA012000B2A8F8EB
:103B00000000E01C1DF80010A01C09E0440000208B
:103B100000000343000083423333034233338341C5
:103B20001DF8000041EA002000B2A8F80200601D64
:103B30001DF80010201D1DF8000041EA002000B211
:103B4000A8F80400287840F008002870A01D84B26E
:103B5000B44213D0FD48007C00F0400070B1601CFE
:103B60001DF800001DF8041040EA012000B2388062
:103B7000287840F040002870A01C84B2B44213D0D2
:103B8000F248007C00F0200070B1601C1DF80000BD
:103B90001DF8041040EA012000B27880287840F037
:103BA00020002870A01C84B2B44213D0E748007CE7
:103BB00000F0100070B1601C1DF800001DF804102A
:103BC00040EA012000B2B880287840F01000287048
:103BD000A01C84B2002009E7F8B504460F4616463B
:103BE000DA4890F8240010B94FF0FF30F8BDD748FC
:103BF000807A10B94FF0FF30F8E7D44A1268917A12
:103C0000D24A526810786B46022202F00BF910B1CA
:103C10004FF0FF30EAE79DF801009DF8001040EA00
:103C20000125A54203DA00203070401EDEE7C748B8
:103C300040684088B5EB600F17DDC44A1268517CBC
:103C4000C24A526810786B46012202F0EBF810B1BC
:103C50004FF0FF30CAE79DF8000000F0100020B1DF
:103C6000FFF7CAF86FF00100C0E7E2B2B74B1B687C
:103C7000D97AB64B5B6818783B4602F0D3F810B19E
:103C80004FF0FF30B2E795FBF4F0401E307000209B
:103C9000ACE70146AD4880F82210002070477CB5A3
:103CA0000546AA494968087801AB04220D2102F0B3
:103CB000B9F808B107207CBD9DF80700C0F30110DA
:103CC0009DF8041001F0E00140EAE1008DF80000E9
:103CD0009DF80700C0F381009DF8051001F0E00198
:103CE00040EAE1008DF801009DF8070000F00300B4
:103CF0009DF8061001F0E00140EAE1008DF80200B5
:103D000000241CE01DF8040018B9002045F8240028
:103D100013E08F4845F8240006E055F824008D494B
:103D200006F024FE45F824001DF80400401EC0B231
:103D30000DF804000028F0D100BF601CC4B2032CB1
:103D4000E0DB0020B7E72DE9FE4F06460F460025D1
:103D50006846FFF7A4FF002442E056F8240057F815
:103D60002410A0EB010ABAF1000F01DB514601E07B
:103D7000CAF10001084606F099FD83464FF08F41D5
:103D800006F062FC80465DF82400002106F01EFD6E
:103D900016D05DF82410404606F056FC82464FF0DF
:103DA0007E5106F0EBFE814629F0004A6A48416ADE
:103DB000504606F0A7FE12D20120A04005430EE0B7
:103DC0006548C169404606F09DFD05D36248016A19
:103DD000404606F097FE02D20120A0400543641C35
:103DE000032CBADB2846BDE8FE8F2DE9FC5F0646B2
:103DF0000F46002555494968087801AB03220D217B
:103E000002F010F810B10720BDE8FC9F9DF80400F7
:103E100000F01F008DF804009DF8050000F01F0061
:103E20008DF805009DF8060000F01F008DF80600D3
:103E3000002456E056F8240057F82410A0EB010B9C
:103E4000BBF1000F01DB594601E0CBF10001084650
:103E500006F02CFD4FF08F41009006F0F5FB8146F7
:103E600001A8005D68B33C49086806F037FD834649
:103E700059463A4806F0E8FB804604E03849404697
:103E800006F074FD804601A8005D401EC0B201A985
:103E900008550028F2D14146484606F0D5FB834636
:103EA0004FF07E5106F06AFE82462AF0004B2A4807
:103EB0008169584606F026FE12D20120A040054333
:103EC0000EE025480169484606F01CFD05D322484E
:103ED0004169484606F016FE02D20120A040054383
:103EE000641C032CA6DB28468EE72DE9F04F87B033
:103EF00005460C46914601208DF8100000208DF8F3
:103F00001100124A1268917C104A5268107804AB72
:103F1000022201F057FF20B14FF0FF3007B0BDE89B
:103F2000F08FC820FEF7ABFC00208DF81000074A88
:103F30001268D17B054A5268107804AB012201F067
:103F400041FF78B14FF0FF30E8E700004400002067
:103F50007B14AE3E1D5A843F84AD000800B04C4532
:103F600054E3853FFC4A12685179FB4A5268107845
:103F700004AB012201F026FF10B14FF0FF30CDE776
:103F8000F54A1268917CF44A5268107804AB012219
:103F900001F018FF10B14FF0FF30BFE7EE4A126892
:103FA000D17DED4A5268107804AB012201F00AFF7E
:103FB00010B14FF0FF30B1E7E74A12681179E64AD5
:103FC0005268107804AB012201F0FCFE10B14FF0F2
:103FD000FF30A3E70C208DF81000DF4A126811793A
:103FE000DD4A5268107804AB012201F0EBFE10B1FB
:103FF0004FF0FF3092E70F20FEF741FCD648806A71
:10400000407A8DF81000D44A12689178D24A5268EA
:10401000107804AB012201F0D5FE10B14FF0FF3053
:104020007CE7CD48806A007A8DF81000CA4A126891
:104030005178C94A5268107804AB012201F0C2FEDF
:1040400010B14FF0FF3069E7B9F1000F07D0C24857
:10405000806A807A40F0E0008DF8100004E0BE48ED
:10406000806A807A8DF81000BB4A12689179BA4A4A
:104070005268107804AB012201F0A4FE10B14FF099
:10408000FF304BE7B9F1000F07D0B348806AC07A20
:1040900040F0E0008DF8100003E0B048C07A8DF8E1
:1040A0001000AD4A1268D179AB4A5268107804AB5F
:1040B000012201F087FE10B14FF0FF302EE7B9F179
:1040C000000F02D0C820FEF7DAFB40208DF8100068
:1040D000A14A12681179A04A5268107804AB0122F3
:1040E00001F070FE10B14FF0FF3017E778208DF827
:1040F0001000994A12685179974A5268107804ABB7
:10410000012201F05FFE10B14FF0FF3006E7934946
:104110008889FEF7B4FB00208DF810008E4A1268E3
:1041200051798D4A5268107804AB012201F04AFEA1
:1041300010B14FF0FF30F1E6874A1268917A864A53
:104140005268107804AB022201F06CFE10B14FF0FF
:10415000FF30E3E69DF811009DF8101040EA012BB6
:104160000C209BFBF0F0C6B20020A86068602860BD
:10417000A06060602060824665E0774A1268D17A6C
:10418000754A5268107804AB0C2201F04BFE10B156
:104190004FF0FF30C2E69DF811009DF8101040EA84
:1041A000012000B2ADF808009DF813009DF8121030
:1041B00040EA012000B2ADF80A009DF815009DF814
:1041C000141040EA012000B2ADF80C00BDF908104F
:1041D000206808442060BDF90A10606808446060E7
:1041E000BDF90C10A0680844A0609DF817009DF868
:1041F000161040EA012000B2ADF800009DF8190049
:104200009DF8181040EA012000B2ADF802009DF8B8
:104210001B009DF81A1040EA012000B2ADF804001E
:10422000BDF90010286808442860BDF902106868CC
:1042300008446860BDF90410A8680844A8600AF141
:10424000010000F0FF0AB24597DB4448D0F800C0F7
:104250002868C117090441EA104107046246002397
:10426000384603F067FB32460023CDE9020103F034
:1042700061FB28603948D0F800C06868C11709049C
:1042800041EA1041070462460023384603F052FB1E
:1042900032460023CDE9020103F04CFB68602F4851
:1042A000D0F800C0A868C117090441EA104107040A
:1042B00062460023384603F03DFB32460023CDE939
:1042C000020103F037FBA8602448D0F804C021683D
:1042D000C817000440EA11480F046246002338461C
:1042E000414603F027FB32460023CDE9020103F0EB
:1042F00021FB20601948D0F804C06068C117090488
:1043000041EA1041070462460023384603F012FBDD
:1043100032460023CDE9020103F00CFB60600F4838
:10432000D0F804C0A068C117090441EA104107048D
:1043300062460023384603F0FDFA32460023CDE9F9
:10434000020103F0F7FAA060A068002808DDA06869
:10435000A0F58030A06007E04400002084AD000894
:10436000A06800F58030A0600020D7E538B504468D
:10437000FE4890F82400A04201D1002038BD24B3AB
:10438000FA4890F8250010B94FF0FF30F6E700200A
:10439000FEF766FB0020FEF78BFCF449C88CFEF7A5
:1043A000F8FE00200090F149496808786B46012228
:1043B000232101F007FD0121EC4880F824100120A1
:1043C000FEF74EFBFEF718FD13E00020FEF748FB5A
:1043D000E648007C0090E549496808786B46012270
:1043E000232101F0EFFC0021E04880F82410FEF7C3
:1043F00003FD0020C2E72DE9F04F8DB083460F4644
:1044000002200C90D94890F8240020B10020FFF73A
:10441000ADFF012600E0002603A8FFF7E4F905A898
:10442000FFF701FA01A8FFF722FA02A8FFF744FA02
:10443000CE4890F80AA004A8FFF798FA002407E0F5
:10444000002239465846FFF750FD00B902E0641CCF
:10445000022CF5DB00BF022C01D1002528E000244E
:1044600007E0012206A909A8FFF73FFD00B902E015
:10447000641C022CF5DB00BF022C01D1002517E0E3
:1044800006A93846FFF75FFC00F0FF0809A9584667
:10449000FFF7ABFC00F0FF090025B9F1000F01D1D7
:1044A00045F00105B8F1000F01D145F0020500BF4C
:1044B000FF20AE490872FF21AC484172C1724FF62D
:1044C000FF71C181FF218172017401210173BDF867
:1044D0000C00FEF7ECFE9DF81400FEF7A6FEBDF8FA
:1044E0000400FEF7AAFDBDF80800FEF752FE504694
:1044F000FEF779FB9DF81000FEF76AFD16B101206A
:10450000FFF734FF28460DB0BDE8F08FF8B504463C
:104510000D46164616B94FF0FF30F8BD9348807A25
:1045200010B94FF0FF30F8E720128DF80000E0B22C
:104530008DF801009DF8010028448C49496849899B
:10454000884202DD4FF0FF30E7E7884A1268117EAB
:10455000864A526810786B46022201F033FC10B193
:104560004FF0FF30D9E7EAB2804B1B68597D7F4B93
:104570005B681878334601F025FC10B14FF0FF302E
:10458000CBE70020C9E7F8B504460D46164616B934
:104590004FF0FF30F8BD7548807A10B94FF0FF300A
:1045A000F8E720128DF80000E0B28DF801009DF8C8
:1045B000010028446D4949684989884202DD4FF06D
:1045C000FF30E7E7694A1268117E684A526810783E
:1045D0006B46022201F0F6FB10B14FF0FF30D9E735
:1045E000EAB2624B1B68597D604B5B6818783346B2
:1045F00001F018FC10B14FF0FF30CBE70020C9E705
:104600002DE9F04385B005460E4690469946574839
:1046100090F8250020B14FF0FF3005B0BDE8F083E1
:1046200016B94FF0FF30F8E7002423E0281B1028CC
:1046300001DD102000E0281B87B2321939462046E0
:10464000FFF764FF10B14FF0FF30E6E701AA3946EB
:104650002046FFF798FF10B14FF0FF30DDE730192B
:104660003A4601A903F040FB10B16FF00100D4E716
:10467000E01984B2AC42D9DB4FEA28208DF8000063
:1046800008F0FF008DF80100384A1268917E374A21
:10469000526810786B46022201F094FB10B14FF083
:1046A000FF30BAE70121314880F82510A0F82690A4
:1046B0000020B2E701462D4890F824000870002041
:1046C00070474FF0FF30704702464FF0FF307047A1
:1046D00001464FF0FF307047F8B505460F461446C7
:1046E000002C74D0B5F5FF5F01DDFF2605E0202D1D
:1046F00001DA012601E0C5F3471607B90127282C86
:1047000002DD4FF0FF30F8BD1848407D28BB174848
:1047100090F8240038B10020FFF728FE012113484B
:1047200080F8201003E00021104880F820100F4886
:104730001630FFF758F80D481830FFF774F80B489B
:104740001A30FFF794F809481C30FFF7B5F807480E
:10475000817A81771F30FFF709F90020FEF780F991
:104760000020FEF7A9FC002002E000004400002029
:104770008DF80000FE4A12689178FD4A5268107860
:104780006B46012201F01EFB10B14FF0FF30BAE77B
:1047900040208DF80000F64A1268D17BF44A526836
:1047A00010786B46012201F00DFB00B165E08DF839
:1047B00000608DF80170EE4A1268117AEC4A526876
:1047C00010786B46022201F0FDFA08B155E047E08F
:1047D0000520FEF754F8E648407A072101EBC000B7
:1047E000C0B28DF80000E24A1268D179E04A5268FE
:1047F00010786B46012201F0E5FA00B13DE020207F
:104800008DF80000012C03D100208DF801000EE08E
:10481000052C03DC01208DF8010008E0142C03DCDA
:1048200002208DF8010002E003208DF801009DF8C0
:104830000100072101EB8010C0B28DF80100CC4AC5
:104840001268917CCA4A526810786B46022201F0C5
:10485000B9FA00B111E00121C5484175002052E7C5
:10486000C34A1632002103E0505C00B105E0491C48
:104870000C29F9D34FF0FF3045E7FF20BC490872FF
:10488000FF21BB484172C1724FF6FF71C181FF2108
:1048900081720174012101730146887FFEF7A3F93B
:1048A000B349C88AFEF703FDB149087EFEF7BDFC97
:1048B000AF49488BFEF7C1FBAD49888BFEF769FC19
:1048C000AB49C87FFEF784FBA94890F8200010B1DF
:1048D0000120FFF74BFD0021A5484175002012E79C
:1048E00070B588B002A905A8FFF785FD0446032C22
:1048F0003ED101A8FEF7F6FF059805F0D7FF064662
:10490000019906F033F8054605F094FF05900698E6
:1049100005F0CCFF0646019906F028F8054605F09B
:1049200089FF0690079805F0C1FF0646019906F039
:104930001DF8054605F07EFF079005A800F095FAE2
:104940006846FEF7ECFFBDF800100298484302905D
:10495000BDF80010039848430390BDF80010049878
:104960004843049002A800F013FB002008B070BD7B
:104970000120FBE7014691F90020002A01DD00201B
:104980001EE091F90020002A01DA042018E091F9D4
:104990000120002A01DD012012E091F90120002A06
:1049A00001DA05200CE091F90220002A01DD022045
:1049B00006E091F90220002A01DA062000E0072033
:1049C000704710B504462046FFF7D4FF0346E01CAD
:1049D000FFF7D0FF43EAC00083B2A01DFFF7CAFF74
:1049E00043EA801083B2184610BD70B5002401F070
:1049F000C3F8FEF79EFC002840D17820FEF7F3F8BC
:104A0000C4B20CB1012070BD7820FEF7E1FAC4B247
:104A10000CB10220F7E76420FEF7BBFBC4B20CB177
:104A20000320F0E700F086F9C4B20CB10420EAE7F5
:104A30005048FFF7C6FF054600F086F9C4B20CB136
:104A40000520E0E740F2731000F0BFFDC4B20CB1E6
:104A50000620D8E7642000F031FBC4B20CB1072077
:104A6000D1E7FFF73DFF04460CB10820CBE701205A
:104A7000FFF77CFCC4B20CB10920C4E70020C2E7F8
:104A80002DE9F04F99B004460D4616464FF07E577B
:104A90004FF000084FF000094FF0000A12A813A9C8
:104AA00018AB0EAACDE9001014A916A800F0ECFE70
:104AB00018B1012019B0BDE8F08FBDF84C0000F42A
:104AC000807000287DD00E9805F0F0FE83464FF0F0
:104AD0009D4105F0B9FD07460F9805F0E7FE8346B6
:104AE0004FF09D4105F0B0FD8046109805F0DEFEC8
:104AF00083464FF09D4105F0A7FD8146119805F0D2
:104B0000D5FE83464FF09D4105F09EFD8246394615
:104B10004FF0804005F02AFF4946059005F026FF3A
:104B2000414607904FF0404005F020FF5146059068
:104B300005F01CFF0690079905F018FD834605F067
:104B4000E9FCCDE9080104F057FC4FF066320A4B4E
:104B5000CDE90A0105F004FACDE90C0104F0AEFF3D
:104B6000206049464FF0804005F000FF494605E0CF
:104B7000440000207000002066A64C40029005F022
:104B8000F5FE414604904FF0404005F0EFFE4146EF
:104B9000029005F0EBFE0390049905F0EFFF8346C9
:104BA0004FF07E5105F0E2FC059005F0B3FCCDE935
:104BB000080139464FF0804005F0D8FE4146039089
:104BC00000E070E005F0D2FE494604904FF08040CE
:104BD00005F0CCFE5146039005F0C8FE83460499CB
:104BE00005F0C4FC059005F095FCCDE90601DDE972
:104BF000082304F051FE4FF06632434BCDE90A0121
:104C000005F0AEF9CDE90C0104F058FF28605146DB
:104C1000504605F0ABFE49460490484605F0A6FE16
:104C200041460390404605F0A1FE394601903846C2
:104C300005F09CFE0090019905F098FC0290039904
:104C400005F09CFF8346049905F098FF059005F058
:104C500061FCCDE908015146384605F087FE49461A
:104C60000490404605F082FE0390049905F07EFC16
:104C70004FF08041059005F079FE834605F04AFC2F
:104C8000CDE90601DDE9082304F006FE4FF06632A7
:104C90001D4BCDE90A0105F063F9CDE90C0104F0E3
:104CA0000DFF306001E0022004E7002002E710B5AC
:104CB000164A17491748FFF7E3FE20BB164800685D
:104CC0001649086516480168144841651548016889
:104CD00012488165144800681049886613480168C5
:104CE0000E48C166124801680C480167094800680F
:104CF0000A49C1F8AC0006480068C1F8A80003489A
:104D00000068C1F8B00010BD66A64C4084000020C9
:104D1000800000207C00002094000020F806002085
:104D2000980000209C000020880000208C000020BB
:104D30009000002010B5C8234FF48062F74940F678
:104D4000F630FFF75DFC10BD10B586B00446F4A048
:104D500000680390F3A000680290F3A0006801903F
:104D6000F2A00068009004F0030003A9085C8DF82D
:104D7000140003A8C4F3C101405C8DF8150003A81A
:104D8000C4F38111405C8DF8160004F0030002A901
:104D9000085C8DF8100002A8C4F3C101405C8DF8D6
:104DA000110002A8C4F38111405C8DF8120005AA1D
:104DB000032140F22640FFF7A9FB18B14FF0FF3066
:104DC00006B010BD04AA032140F22A40FFF79EFB63
:104DD00010B14FF0FF30F3E7019805900098049070
:104DE00004F0040058B19DF8140040F001008DF863
:104DF00014009DF8100040F001008DF8100004F040
:104E0000200058B19DF8150040F001008DF8150004
:104E10009DF8110040F001008DF8110004F480703D
:104E200058B19DF8160040F001008DF816009DF86D
:104E3000120040F001008DF8120005AA03214FF482
:104E40008860FFF763FB10B14FF0FF30B8E704AAAA
:104E5000032140F23140FFF759FB10B14FF0FF3012
:104E6000AEE7B34804810020AAE71FB50446B04866
:104E7000007A00F0030054F820000190AC48007A5A
:104E800000F0040010B1019840420190A848007A57
:104E9000C0F3C10054F820000290A548007A00F049
:104EA000200010B1029840420290A148007AC0F35D
:104EB000811054F8200003909D48008900F4807010
:104EC00010B10398404203909A49019880FB010178
:104ED000800F40EA810001909649029880FB011002
:104EE000820042EA917002909249039880FB01107F
:104EF000820042EA917003900198000E8DF8000044
:104F00000198000C8DF801000198000A8DF802004C
:104F10000198C0B28DF803006A4604214FF4747002
:104F2000FFF7F4FA18B14FF0FF3004B010BD02984B
:104F3000000E8DF800000298000C8DF80100029818
:104F4000000A8DF802000298C0B28DF803006A468C
:104F500004214FF47570FFF7D9FA10B14FF0FF300C
:104F6000E3E70398000E8DF800000398000C8DF81D
:104F700001000398000A8DF802000398C0B28DF872
:104F800003006A4604214FF47670FFF7BFFACCE7BE
:104F900070B588B0064601A8FEF7C1FCBDF8040054
:104FA0000021C90341EA5045C4036148007A00F07A
:104FB000030056F8200005905D48007A00F00400D8
:104FC00010B10598404205905948007AC0F3C100DD
:104FD00056F8200006905648007A00F0200010B1E4
:104FE0000698404206905248007AC0F3811056F865
:104FF000200007904E48008900F4807010B1079897
:10500000404207900598C117A0FB042301FB04311F
:1050100000FB0510810041EA927005900698C117C7
:10502000A0FB042301FB043100FB0510810041EAD1
:10503000927006900798C117A0FB042301FB04316E
:1050400000FB0510810041EA927007900598000E60
:105050008DF808000598000C8DF809000598000AE5
:105060008DF80A000598C0B28DF80B000698000E66
:105070008DF80C000698000C8DF80D000698000ABB
:105080008DF80E000698C0B28DF80F000798000E3C
:105090008DF810000798000C8DF811000798000A91
:1050A0008DF812000798C0B28DF8130002AA0C21E7
:1050B0004FF42570FFF72AFA08B070BD30B585B0FF
:1050C00004461DA207CA02AB07C3C82C03DD4FF07C
:1050D000FF3005B030BDC82090FBF4F0401E85B213
:1050E000280A8DF80000E8B28DF801006A46022116
:1050F00040F21620FFF70AFA10B14FF0FF30E8E750
:1051000002AA0C2140F6C120FFF700FA10B14FF0BF
:10511000FF30DEE7064884810020DAE7ACAD000806
:105120004CCD6C000CC92C00365676002646660025
:105130005401002009E3CA02FEF2ABC4AAF1DFDF8A
:10514000BBAFDFDF0146FC48808908800020704744
:105150002DE9FC4706460F4606F0070010B1B7F5EB
:10516000C86F03DD4FF0FF30BDE8FC87384605F01F
:10517000B5FB8146F14905F067FA80466846FEF7BF
:1051800052FB9DF80000022806D0042816D00828FB
:1051900026D0102848D135E04FF08D41404605F02B
:1051A000E5FB814605F062FB84B2E549404605F027
:1051B000DDFB814605F05AFB85B238E04FF08C41AB
:1051C000404605F0D3FB814605F050FB84B2DD4933
:1051D000404605F0CBFB814605F048FB85B226E052
:1051E0004FF08B41404605F0C1FB814605F03EFB88
:1051F00084B2D549404605F0B9FB814605F036FB3F
:1052000085B214E04FF08A41404605F0AFFB81467D
:1052100005F02CFB84B2CD49404605F0A7FB814642
:1052200005F024FB85B202E04FF0FF309CE700BFA1
:1052300020128DF80400E0B28DF8050028128DF8D8
:105240000600E8B28DF8070006F00100A0B101AA3F
:1052500002214FF4EA70FFF759F910B14FF0FF3017
:1052600082E70DF1060202214FF49270FFF74EF92A
:1052700010B14FF0FF3077E706F00200A0B101AAAD
:1052800002214FF4EC70FFF741F910B14FF0FF30FD
:105290006AE70DF1060202214FF49470FFF736F928
:1052A00010B14FF0FF305FE706F00400A0B101AA93
:1052B00002214FF4EE70FFF729F910B14FF0FF30E3
:1052C00052E70DF1060202214FF49670FFF71EF926
:1052D00010B14FF0FF3047E7002045E738B50446EE
:1052E0000020009004F0010020B19DF8000040F083
:1052F0003000009004F0020020B19DF8000040F062
:105300000C00009004F0040020B19DF8000040F073
:10531000030000906A4601214FF4A470FFF7F6F8ED
:1053200038BD38B50446012C01DA012402E0042C12
:1053300000DD0424601EC0B200906A46012140F2E4
:105340004F10FFF7E3F838BD38B50446052094FB4D
:10535000F0F085B228128DF80000E8B28DF8010057
:105360006A4602214FF4EF70FFF7D0F838BD38B528
:105370000446052094FBF0F085B228128DF8000059
:10538000E8B28DF801006A4602214FF4ED70FFF794
:10539000BDF838BDF8B505460E464FF47A7095FB5A
:1053A000F0F000FB06F4200E8DF80000200C8DF8C4
:1053B0000100200A8DF80200E0B28DF803006A4671
:1053C00004214FF4AE70FFF7A1F8F8BD38B50446DC
:1053D000052094FBF0F084B220128DF80000E0B2BA
:1053E0008DF801006A4602214FF4AD70FFF78EF888
:1053F00038BD38B50446052094FBF0F084B2201285
:105400008DF80000E0B28DF801006A4602214FF4E9
:10541000AC70FFF77BF838BD38B5044614B94FF0CF
:10542000FF3038BD6A4604214FF45870FFF7ABF8DF
:1054300010B14FF0FF30F4E79DF8000000069DF832
:10544000011040EA01409DF8021040EA01209DF859
:105450000310084320600020E3E738B50446200E1F
:105460008DF80000200C8DF80100200A8DF8020054
:10547000E0B28DF803006A4604214FF45870FFF73C
:1054800045F838BD38B5044614B94FF0FF3038BD83
:105490006A4604214FF47170FFF775F810B14FF0B0
:1054A000FF30F4E79DF8000000069DF8011040EA87
:1054B00001409DF8021040EA01209DF803100843C6
:1054C00000EB8000800020600020E0E738B5044653
:1054D0001420B4FBF0F4200E8DF80000200C8DF8A1
:1054E0000100200A8DF80200E0B28DF803006A4640
:1054F00004214FF47170FFF709F838BD38B5044640
:1055000064B120208DF8000028208DF801003020A3
:105510008DF8020038208DF8030004E0A322042156
:10552000684602F02CFC6A46042140F69E20FEF7F5
:10553000EDFFFDF761FC38BD540100200000484339
:10554000000040460000C045000040450000C04447
:1055500038B5044664B1C0208DF80000C2208DF833
:105560000100C4208DF80200C6208DF8030004E07D
:105570008B220421684602F002FC6A46042140F6B0
:105580009820FEF7C3FFFDF737FC38BD3EB5044653
:105590006CB1FCA1D1E900208968CDE9002002911D
:1055A0006A4609214FF49760FEF7B0FF3EBDF8A2AE
:1055B000D2E900109268CDE9010200916A46092102
:1055C0004FF49760FEF7A2FFF0E73EB504460220D5
:1055D0008DF80000CA208DF80100E3208DF802004C
:1055E00009208DF803006A4604216820FEF78EFF2B
:1055F000A3208DF8000004F0400048B1C0208DF8D1
:105600000100C8208DF80200C2208DF8030006E0DA
:10561000A3208DF801008DF802008DF8030004F43A
:10562000C07048B1C4208DF80400CC208DF805006E
:10563000C6208DF8060006E0A3208DF804008DF842
:1056400005008DF80600A3208DF807008DF80800EE
:105650008DF809006A460A2140F6A720FEF756FF9A
:1056600004F0030018B120208DF8000002E0D820DB
:105670008DF800006A46012140F6B620FEF746FF8D
:1056800004F0200018B10120FFF780FF02E00020A5
:10569000FFF77CFF04F4C07008B304F4807060B1BD
:1056A000B2208DF800008B208DF80100B6208DF817
:1056B00002009B208DF803000BE0B0208DF8000065
:1056C00080208DF80100B4208DF8020090208DF824
:1056D00003006A46042140F6A220FEF717FF04F0FB
:1056E000010020B3F8208DF800006A4601214FF434
:1056F0000B60FEF70BFFFA210720FFF729FD0720BB
:10570000FFF7ECFD0120FFF70CFE6420FFF71CFE05
:105710004FF4FA70FFF72BFEC821A048FFF73AFEBE
:105720002820FFF753FE0A20FFF763FE08E0D82089
:105730008DF800006A4601214FF40B60FEF7E6FE8B
:1057400004F0020018B1D9208DF8000002E0D82042
:105750008DF800006A46012140F23D70FEF7D6FE4A
:1057600004F0040018B10120FFF7F2FE02E000206F
:10577000FFF7EEFE04F0100018B10120FFF7BEFEA7
:1057800002E00020FFF7BAFE44F008008449488197
:10579000FDF732FB00208249887304F0400018B105
:1057A0000846807B801D887304F4C07020B17C485B
:1057B000807B801D7A49887304F0140020B17848FA
:1057C000807B10307649887304F0030020B1744860
:1057D000807B001D7249887300203EBD01467048E1
:1057E00040890880002070472DE9F0410446E078A8
:1057F00000F0C006E07800F03F05607800F001009E
:1058000098B1EF102846E91705EB5171C910A5EBC7
:10581000C101491C01F0FF086148006820B16048DF
:10582000414602683846904700BF607800F00800A3
:1058300030B15B48406818B1B011594A5168884787
:105840000020BDE8F08110B586B0044655A207CA15
:1058500003AB07C356A207CA8DE80700012C09D085
:10586000022C0ED103AA0B2140F68220FEF74EFE39
:1058700006B010BD6A460B2140F68220FEF746FEB8
:10588000F6E74FF0FF30F3E72DE9F04F8DB081469A
:105890008A4615469B46169E0024002030804049CB
:1058A000887B05A9179AFEF797F918B1601E0DB00D
:1058B000BDE8F08F3A48807A00F0140000287DD0CF
:1058C0009DF8140000069DF8151040EA01409DF86F
:1058D000161040EA01209DF81710084328609DF833
:1058E000180000069DF8191040EA01409DF81A10B2
:1058F00040EA01209DF81B10084368609DF81C00D9
:1059000000069DF81D1040EA01409DF81E1040EA77
:1059100001209DF81F100843A8609DF82000000694
:105920009DF8211040EA01409DF8221040EA012034
:105930009DF823100843E86004F11000C4B2286801
:1059400000140190686800140290A8680014039085
:10595000E8680014049001984043029901FB01009B
:10596000039901FB0100049901FB0107B7F1706F76
:1059700002DBB7F1885F22DDFDF73EFA00203080C0
:10598000401E94E7B8AAB38DB4980D355D000000B1
:10599000B8AAAAAAB088C3C5C700000009E3CA0212
:1059A00054010020D8B1B9F38BA391B609B4D90042
:1059B000DAB1B9F38BA391B6DAB4DA0005E0B6F93F
:1059C000000040F48070308000BF6348807A00F0AF
:1059D000400020B305A9601C085C095D40EA012075
:1059E00000B2AAF8000005A9E01C095C05AAA01CE9
:1059F000105C41EA002000B2AAF8020005A9601D6F
:105A0000095C201D105C41EA002000B2AAF80400E5
:105A1000A01DC4B2B6F9000040F008003080BAF909
:105A2000000004F043FF07464FF08D4104F00CFEE8
:105A30004A490860BAF9020004F038FF07464FF0FF
:105A40008D4104F001FE46490860BAF9040004F0F3
:105A50002DFF07464FF08D4104F0F6FD41490860E7
:105A60003D48408900F4C07020B305A9601C085C63
:105A7000095D40EA012000B2A9F8000005A9E01C78
:105A8000095C05AAA01C105C41EA002000B2A9F83C
:105A9000020005A9601D095C201D105C41EA002080
:105AA00000B2A9F80400A01DC4B2B6F9000040F08D
:105AB00070003080B9F9000004F0F8FE019004F0A5
:105AC00029FD4FF06632284BCDE9020104F0D8F8E9
:105AD000074603F0F3FF25490860B9F9020004F016
